:100000000C942A000C9447000C9447000C94470071
:100010000C9447000C9447000C9443040C94F10397
:100020000C941A040C94C8030C9447000C944700D9
:100030000C9447000C9447000C9447000C94470024
:100040000C9447000C9447000C9447000C94470014
:100050000C94470011241FBECFE5D8E0DEBFCDBF12
:1000600010E0A0E6B0E0EEE5F9E002C005900D92E8
:10007000A83FB107D9F721E0A8EFB0E001C01D9279
:10008000A030B207E1F70E94D7010C94AD040C94A4
:100090000000CF93CCE061E08C2F0E944903CF5F3A
:1000A000C031C9F7CF910895CF93C82F60E081E0A8
:1000B0000E9449036C2F661F6627661F86E00E9418
:1000C0004903C6FB662760F985E00E944903C5FB2A
:1000D000662760F984E00E944903C4FB662760F943
:1000E00083E00E94490361E082E00E9449038FECB3
:1000F00097E00197F1F700C0000060E082E00E9405
:1001000049038FEC97E00197F1F700C00000C3FBB3
:10011000662760F986E00E944903C2FB662760F902
:1001200085E00E944903C1FB662760F984E00E94D4
:1001300049036C2F617083E00E94490361E082E013
:100140000E9449038FEC97E00197F1F700C000008F
:1001500060E082E00E9449038FEC97E00197F1F79D
:1001600000C00000CF910895CF93C82F61E081E0D7
:100170000E9449036C2F661F6627661F86E00E9457
:100180004903C6FB662760F985E00E944903C5FB69
:10019000662760F984E00E944903C4FB662760F982
:1001A00083E00E94490361E082E00E9449038FECF2
:1001B00097E00197F1F700C0000060E082E00E9444
:1001C00049038FEC97E00197F1F700C00000C3FBF3
:1001D000662760F986E00E944903C2FB662760F942
:1001E00085E00E944903C1FB662760F984E00E9414
:1001F00049036C2F617083E00E94490361E082E053
:100200000E9449038FEC97E00197F1F700C00000CE
:1002100060E082E00E9449038FEC97E00197F1F7DC
:1002200000C00000CF9108952FE788E391E02150AE
:1002300080409040E1F700C0000082E00E9454003E
:1002400088E20E9454008CE00E94540081E00E94E9
:1002500054008FEC97E00197F1F700C0000086E0B2
:100260000C9454004F925F926F927F92AF92BF9224
:10027000CF92DF92EF92FF921F93CF93DF93CDB790
:10028000DEB72A970FB6F894DEBF0FBECDBF6B0165
:100290007C016115710581059105B1F480E32A9611
:1002A0000FB6F894DEBF0FBECDBFDF91CF911F9187
:1002B000FF90EF90DF90CF90BF90AF907F906F90C6
:1002C0005F904F900C94B40097FF0BC0F094E094B3
:1002D000D094C094C11CD11CE11CF11C8DE20E9481
:1002E000B40010E09AE0492E512C612C712CAA2404
:1002F000A394B12CAC0EBD1EA10EB11CC701B6015A
:10030000A30192010E948E04605DF501608381E08B
:10031000810F69017A01C114D104E104F10411F0E3
:10032000182FE5CFF12EF7FC0DC0E1E0F0E0EC0F67
:10033000FD1FEF0DF11DF7FCFA9580810E94B400BE
:10034000FA94F1CF2A960FB6F894DEBF0FBECDBF58
:10035000DF91CF911F91FF90EF90DF90CF90BF90F2
:10036000AF907F906F905F904F9008950F931F9381
:10037000CF938C01C0E0F801EC0FF11D8081882340
:1003800021F00E94B400CF5FF6CFCF911F910F9163
:100390000895813021F48FEF860F806805C0823088
:1003A00029F48FEF860F806C0C94540008950E94FE
:1003B0006B020E9414010E94490064E081E00E94E7
:1003C000440280E00E945902EC0161E082E00E9458
:1003D000C901BE0180E090E00E94320181EF90E00F
:1003E0000E94B60161E081E00E94C901C11582E06E
:1003F000D807E1F1C0F4C53581E0D80789F148F4A8
:10040000C239D10551F1C115D140D9F68AE890E041
:1004100038C0CA3981E0D80731F1C13DD14089F6F1
:1004200088EA90E02EC0C63682E0D80729F150F461
:10043000C73282E0D807E9F0C934D24011F686EC21
:1004400090E01FC0C43183E0D807C9F0CF3FD3404C
:1004500009F0B7CF85EE90E014C080E890E011C0BD
:1004600084E990E00EC08EE990E00BC082EB90E052
:1004700008C08CEB90E005C080ED90E002C08AEDF2
:1004800090E00E94B6019DCF813041F028F082308B
:1004900039F43E9A3F9A04C03E9801C03E9A3F9874
:1004A00086B1887F86B986B16770682B66B9379A3E
:1004B000089597B1907E97B997B1892B87B9369AED
:1004C0008FEC97E00197F1F700C000003699FECF5E
:1004D00084B195B10895E0E6F0E040E081E090E07D
:1004E0005191342F369536953695242F27705130FB
:1004F00009F443C020F0523009F482C0C5C0323044
:1005000001F1333061F1313071F05AB3BC0102C0F6
:10051000660F771F2A95E2F79B01352F322B3ABBE6
:100520003BB320953DC057B3BC0102C0660F771F97
:100530002A95E2F79B01352F322B37BB38B3209534
:100540003EC054B3BC0102C0660F771F2A95E2F784
:100550009B01352F322B34BB35B320953FC051B3AF
:10056000BC0102C0660F771F2A95E2F79B01352F69
:10057000322B31BB32B3209541C0323011F13330D0
:1005800081F1313079F05AB3BC0102C0660F771F98
:100590002A95E2F79B012095352F32233ABB3BB3D6
:1005A000232342C057B3BC0102C0660F771F2A95B0
:1005B000E2F79B012095352F322337BB38B3232335
:1005C00043C054B3BC0102C0660F771F2A95E2F7FF
:1005D0009B012095352F322334BB35B3232325BB14
:1005E00053C051B3BC0102C0660F771F2A95E2F7D2
:1005F0009B012095352F322331BB32B3232343C0D7
:10060000323021F1333089F1313081F05AB3BC01FD
:1006100002C0660F771F2A95E2F79B01362F3095AF
:1006200035233ABB3BB3232B2BBB2EC057B3BC01A6
:1006300002C0660F771F2A95E2F79B01362F30958F
:10064000352337BB38B3232B28BB1EC054B3BC01A2
:1006500002C0660F771F2A95E2F79B01362F30956F
:10066000352334BB35B3232BBACF51B3BC0102C001
:10067000660F771F2A95E2F79B01362F30953523B9
:1006800031BB32B3232B22BB4F5F403209F028CF5E
:100690000895982F96959695969587706130C1F537
:1006A000913091F028F09230D9F0933029F10895EB
:1006B0004BB321E030E0B90102C0660F771F8A9585
:1006C000E2F7CB01842B38C048B321E030E0B90118
:1006D00002C0660F771F8A95E2F7CB01842B3AC0E0
:1006E00045B321E030E0B90102C0660F771F8A955B
:1006F000E2F7CB01842B3CC042B321E030E0B901EA
:1007000002C0660F771F8A95E2F7CB01842B3EC0AB
:100710009130A1F028F09230F9F0933059F108951A
:100720004BB321E030E0B90102C0660F771F8A9514
:10073000E2F7CB01809584238BBB089548B321E079
:1007400030E0B90102C0660F771F8A95E2F7CB014E
:100750008095842388BB089545B321E030E0B9013A
:1007600002C0660F771F8A95E2F7CB01809584233C
:1007700085BB089542B321E030E0B90102C0660FA5
:10078000771F8A95E2F7CB018095842382BB089579
:100790001F920F920FB60F9211242F933F934F93F6
:1007A0005F936F937F938F939F93AF93BF93EF93D9
:1007B000FF93E091FE00F091FF00309709F009955A
:1007C000FF91EF91BF91AF919F918F917F916F9129
:1007D0005F914F913F912F910F900FBE0F901F90FF
:1007E00018951F920F920FB60F9211242F933F93DB
:1007F0004F935F936F937F938F939F93AF93BF9329
:10080000EF93FF93E091FC00F091FD00309709F029
:100810000995FF91EF91BF91AF919F918F917F913A
:100820006F915F914F913F912F910F900FBE0F905D
:100830001F9018951F920F920FB60F9211242F93AD
:100840003F934F935F936F937F938F939F93AF9358
:10085000BF93EF93FF93E091FA00F091FB00309784
:1008600009F00995FF91EF91BF91AF919F918F9101
:100870007F916F915F914F913F912F910F900FBE9C
:100880000F901F9018951F920F920FB60F92112480
:100890002F933F934F935F936F937F938F939F9388
:1008A000AF93BF93EF93FF93E091F800F091F900BD
:1008B000309709F00995FF91EF91BF91AF919F910A
:1008C0008F917F916F915F914F913F912F910F90F9
:1008D0000FBE0F901F901895A1E21A2EAA1BBB1BEA
:1008E000FD010DC0AA1FBB1FEE1FFF1FA217B307FC
:1008F000E407F50720F0A21BB30BE40BF50B661F12
:10090000771F881F991F1A9469F7609570958095D5
:1009100090959B01AC01BD01CF010895052E97FB79
:100920001EF400940E94A50457FD07D00E946C0499
:1009300007FC03D04EF40C94A504509540953095D7
:1009400021953F4F4F4F5F4F08959095809570953B
:0E09500061957F4F8F4F9F4F0895F894FFCF12
:10095E000100000000000001000002000000000085
:10096E000000000000000000000002020000000075
:10097E00425554544F4E20312000425554544F4E40
:10098E0020322000425554544F4E20332000425501
:10099E0054544F4E20342000425554544F4E20355F
:1009AE002000425554544F4E203620004255545488
:1009BE004F4E20372000425554544F4E20382000C1
:1009CE00425554544F4E20392000425554544F4EE8
:1009DE002031302000202020202020202020202008
:0809EE00202020202020200021
:00000001FF
